:020000040800F2
:100000009806002089010008ED040008C7030008D5
:10001000270400084D020008D10C00080000000071
:100020000000000000000000000000007F09000840
:10003000510200080000000019090008690A0008C0
:10004000A3010008A3010008A3010008A301000800
:10005000A3010008A3010008A3010008A3010008F0
:10006000A3010008A3010008A3010008A3010008E0
:10007000A3010008A3010008A3010008A3010008D0
:10008000A3010008A3010008A3010008A3010008C0
:10009000A3010008A3010008A3010008A3010008B0
:1000A000A3010008A3010008A3010008A3010008A0
:1000B000A3010008A3010008A3010008A301000890
:1000C000A3010008A3010008A3010008A301000880
:1000D000A3010008A3010008A3010008A301000870
:1000E000A3010008A3010008A301000800F002F822
:1000F00000F03AF80AA090E8000C82448344AAF188
:100100000107DA4501D100F02FF8AFF2090EBAE885
:100110000F0013F0010F18BFFB1A43F0010318473B
:100120004412000064120000103A24BF78C878C15D
:10013000FAD8520724BF30C830C144BF04680C60ED
:10014000704700000023002400250026103A28BF35
:1001500078C1FBD8520728BF30C148BF0B60704739
:100160001FB51FBD10B510BD00F033F81146FFF7E5
:10017000F7FF00F0B1FD00F051F803B4FFF7F2FF14
:1001800003BC00F0A7FD000009488047094800476C
:10019000FEE7FEE7FEE7FEE7FEE7FEE7FEE7FEE737
:1001A000FEE7FEE704480549054A064B7047000094
:1001B0006D0A0008ED000008980000209806002055
:1001C00098020020980200207047704770477047DF
:1001D0007047754600F02CF8AE4605006946534658
:1001E00020F00700854618B020B5FFF7DBFFBDE81B
:1001F00020404FF000064FF000074FF000084FF08E
:10020000000B21F00701AC46ACE8C009ACE8C0091E
:10021000ACE8C009ACE8C0098D46704710B504468B
:10022000AFF300802046BDE81040FFF7A6BF0000F6
:10023000004870473400002010B56FF0590000F0FE
:10024000F5F86FF0590000F011F910BD00BFFEE79E
:10025000704700B5034603E04FF47A7000F005F8EC
:10026000181EA3F10103F7D100BD00EBC001C900C6
:100270004FF0E0225161002191610521116100BF21
:100280004FF0E021096901F480310029F8D0042100
:100290004FF0E022116170472DE9F0410246002540
:1002A0000026002000230024002791F803C00CF052
:1002B0000F0591F803C00CF0100CBCF1000F03D037
:1002C00091F802C04CEA050591F800C0BCF1000F9E
:1002D00031D0146800202BE04FF0010C0CFA00F331
:1002E000B1F800C00CEA03069E4220D183004FF013
:1002F0000F0C0CFA03F7BC4305FA03FC4CEA0404A8
:1003000091F803C0BCF1280F06D14FF0010C0CFA94
:1003100000FCC2F814C00AE091F803C0BCF1480F19
:1003200005D14FF0010C0CFA00FCC2F810C0401CC3
:100330000828D1D31460B1F800C0BCF1FF0F34DD40
:10034000546800202EE000F1080C4FF0010808FA74
:100350000CF3B1F800C00CEA03069E4221D18300E1
:100360004FF00F0C0CFA03F7BC4305FA03FC4CEA00
:10037000040491F803C0BCF1280F05D100F1080C6A
:1003800008FA0CF8C2F8148091F803C0BCF1480FC9
:1003900007D100F1080C4FF0010808FA0CF8C2F878
:1003A0001080401C0828CED35460BDE8F081416124
:1003B00070470161704710B55A2000F037F85A2095
:1003C00000F054F810BD00BFFEE7000008B50121A1
:1003D000202000F0B3FA10208DF803004FF4A8504D
:1003E000ADF8000003208DF8020069460448FFF7CD
:1003F00053FF4FF4A8510248FFF7D9FF08BD000092
:100400000014014010B5462000F010F86FF04500D0
:1004100000F02CF810BD10B55A2000F007F80020AD
:1004200000F024F810BD00BFFEE7000010B5044640
:10043000002C0BDB20210C48FFF7BBFF10210A48E2
:10044000FFF7B5FFA0B200F053FA0BE020210648F9
:10045000FFF7ADFF10210448FFF7ABFF614288B200
:1004600000F046FA10BD00000008014010B5044637
:10047000002C0BDB40210C48FFF79BFF80210A4832
:10048000FFF795FFA0B200F03DFA0BE040210648CF
:10049000FFF78DFF80210448FFF78BFF614288B290
:1004A00000F030FA10BD00000008014008B501213D
:1004B000042000F043FA10208DF80300F020ADF87E
:1004C000000003208DF8020069460348FFF7E4FEB0
:1004D00000F0C2F908BD00000008014010B5F0218D
:1004E0000148FFF766FF10BD00080140704700009B
:1004F000002004E00021034A1154411CC8B209281D
:10050000F8DB70472800002038B504460120009031
:1005100000201E494870012000902EE0BDF8000028
:10052000204018B101201A49086002E00020184953
:10053000086001201649083108600520FFF795FE84
:1005400000201449C1F88C010520FFF78EFE012020
:100550001049C1F88C010846D0F8000130B10B48B1
:100560004078BDF80010084308494870BDF8000005
:100570004FF6FF7101EA40000090BDF80000FF282F
:10058000CCDD1020FFF771FE38BD000028000020F0
:10059000840121420000214210B5FFF7A9FF00F0BD
:1005A000A5F80F48C0780E49097940EA01200D49A5
:1005B000088000240FE00C4810F81400401E0121B0
:1005C00001FA00F007490988084010B9601CC0B260
:1005D00010BD601CC4B2102CEDDB0020F8E7000059
:1005E00028000020000000200400002010B500209A
:1005F000134908601020FFF738FE0120FFF784FF41
:100600004320FFF781FF0020FFF77EFF0120FFF767
:100610007BFF0020FFF778FF0020FFF775FF002029
:10062000FFF772FF0020FFF76FFF0020FFF76CFF5E
:1006300001200449C1F888011020FFF716FE10BD03
:10064000880121420000214210B5002013490860B2
:100650001020FFF70AFE0120FFF756FF4320FFF7A7
:1006600053FF0020FFF750FF0020FFF74DFF5A20F7
:10067000FFF74AFF5A20FFF747FF5A20FFF744FFD2
:100680005A20FFF741FF5A20FFF73EFF012004499F
:10069000C1F888011020FFF7E8FD10BD8801214254
:1006A000000021420F48806940F004000D49886134
:1006B0000D4800684FF6F07188430B490860084602
:1006C000006843F230310843074908600846006873
:1006D00020F00F0008600846006840F0080008603D
:1006E0007047000000100240000801401CB50020C7
:1006F00001900120009000202549086025490878D4
:10070000FFF702FF23494878FFF7FEFE0220019021
:1007100036E00120009027E001201D49091D0860F6
:100720000520FFF7A2FD00201B49C1F88C01052020
:10073000FFF79BFD01201849C1F88C010846D0F84D
:10074000000150B115489DF80410405CBDF8001040
:10075000084312499DF804208854BDF800004FF664
:10076000FF7101EA40000090BDF80000FF28D3DDD2
:100770001020FFF77AFD9DF80400401CC0B20190E4
:100780009DF804000928C4DB0120014908601CBD54
:1007900088012142020000200000214228000020A0
:1007A00010B500F00BF800F009F800F007F8FFF7BB
:1007B0001DFF00F025F8FFF747FF10BD10B5002022
:1007C0000D4908601020FFF750FD0120FFF79CFE47
:1007D0004220FFF799FE0020FFF796FE0020FFF76A
:1007E00093FE0020FFF790FE01200449C1F8880124
:1007F0001020FFF73AFD10BD880121420000214280
:1008000010B50020124908600120FFF77DFE44204A
:10081000FFF77AFE0020FFF777FE0120FFF774FE56
:100820000320FFF771FE0020FFF76EFE0020FFF7A8
:100830006BFE0020FFF768FE0020FFF765FE012039
:100840000449C1F888011020FFF70FFD10BD00001A
:10085000880121420000214200B589B00121022017
:1008600000F05CF80121082000F068F818208DF8ED
:1008700023000320ADF820008DF8220008A91A48B3
:10088000FFF70AFD194800F02DF90020ADF81A0015
:10089000ADF816006320ADF818002320ADF8140061
:1008A00000208DF81C0005A9104800F0BFF901A830
:1008B00000F0ACF96020ADF804000020ADF80C00A9
:1008C0000120ADF806000020ADF80A0001A9074894
:1008D00000F00EF901A9054800F05AF9012103487A
:1008E00000F0F4F809B000BD000C01400004004025
:1008F00010B504462146024800F092F910BD0000F0
:100900000004004010B504462146024800F08AF970
:1009100010BD0000000400407047000029B1064AE5
:10092000D2690243044BDA6104E0034AD26982438C
:10093000014BDA61704700000010024029B1064AFD
:1009400092690243044B9A6104E0034A926982432C
:10095000014B9A61704700000010024010B56FF023
:100960004500FFF763FD4620FFF780FD10BD10B581
:100970000020FFF75BFD5A20FFF778FD10BD7047A0
:1009800010B500F001F810BD0CB5002001900090EA
:100990003348006840F480303149086000BF304877
:1009A000006800F4003000900198401C019000980D
:1009B00018B90198B0F5A06FF1D12948006800F48A
:1009C000003010B10120009001E00020009000985C
:1009D000012843D12348006840F0100021490860F5
:1009E0000846006820F0030008600846006840F0F0
:1009F000020008601A484068194948600846406883
:100A000048600846406840F4806048600846406896
:100A100020F47C1048600846406840F4E8104860C4
:100A20000846006840F08070086000BF0C4800680D
:100A300000F000700028F9D00948406820F0030059
:100A4000074948600846406840F00200486000BF1F
:100A50000348406800F00C000828F9D10CBD0000E4
:100A600000100240002002407047000010B51348FB
:100A7000006840F0010011490860084640681049CC
:100A800008400E494860084600680E4908400B4976
:100A900008600846006820F4802008600846406826
:100AA00020F4FE0048604FF41F008860FFF768FFE5
:100AB0004FF000600449086010BD000000100240C3
:100AC0000000FFF8FFFFF6FE08ED00E021B102880C
:100AD00042F00102028004E002884FF6FE731A40E1
:100AE0000280704701894FF6F8721140018170470A
:100AF00070B5002400220023058C4FF6FF663540B8
:100B00000584028C8388848B4FF68F752C404FF6BA
:100B1000FC752C400D882C434FF6FF552A400D895B
:100B20004FF6FF7606EA05252A434D8806EA052595
:100B30002A43154DA84202D0144DA8421DD14FF2B0
:100B4000FF752A404D894FF6FF7606EA05252A43B0
:100B50004FF6FF352A408D8806EA05252A434EF6D2
:100B6000FF752B404DF6FF752B408D8906EA051564
:100B70002B43CD8906EA05152B4383808483CD88DA
:100B80008587028470BD0000002C014000340140C4
:100B900070B5002200230024058C4EF6FF76354008
:100BA0000584038C8488828B48F6FF752A404FF6B3
:100BB000FF452A400D884FF6FF7606EA05252A43B1
:100BC0004DF6FF752B400D8906EA05352B434D8800
:100BD00006EA05352B430B4DA84202D00A4DA84228
:100BE00008D14BF6FF752C408D894FF6FF7606EA4B
:100BF00085152C4384808283CD88A0F840500384DF
:100C000070BD0000002C0140003401400021018033
:100C100041808180C180018141818181C181704792
:100C200081877047A0F840107047000000220288BA
:100C30001D4B98420ED01D4B98420BD0B0F1804F07
:100C400008D01B4B984205D01A4B984202D01A4B41
:100C5000984204D14FF68F731A404B881A43174BB2
:100C6000984207D0164B984204D04FF6FF431A40E3
:100C7000CB881A4302808B8883850B8803850A4BB7
:100C800098420BD0094B984208D00E4B984205D0A1
:100C90000D4B984202D00D4B984201D10B7A03863E
:100CA0000123838270470000002C01400034014082
:100CB0000004004000080040000C0040001000400C
:100CC0000014004000400140004401400048014041
:100CD00000BFFEE700BF70474FF41651482000F0F8
:100CE0003BF84FF47A70FFF7B4FAFFF7DFFBFFF73A
:100CF0006DFBFFF7D7FCFFF753FD4FF47A70FFF75A
:100D0000A8FA26E0FFF748FC124908601420FFF714
:100D1000A0FA10480068401F062816D2DFE800F04D
:100D2000030C06090F12FFF746FB11E0FFF784FAE8
:100D30000EE0FFF767FB0BE0FFF710FE08E0FFF7A0
:100D40006AFB05E0FFF713FE02E0FFF7C7FB00BFF9
:100D500000BFD7E7240000202DE9F05F05460E46CE
:100D6000300100F09FF98146284905FB01F000F0B1
:100D700099F98246494600F0B3F80746384600F034
:100D800071F984B2204600F08DF98346394600F0AF
:100D900069FA82464FF0834100F098F9814600F0ED
:100DA00061F980464FF6FF7000EA041404EB080076
:100DB00084B21748806940F00400154988610846EC
:100DC000806940F4804088611248006820F47F60A8
:100DD000104908600846006840F40B6008600C4841
:100DE000C06840F480400A49C8600846C06820F4E2
:100DF0008040C86008480480001D008842F20C0151
:100E000008430549091D0880BDE8F09F40420F00D6
:100E100000100240040801400838014090EA010F28
:100E200048BF81F0004100F12E82421A3CBF801A77
:100E300089184FEAD0524FF07F4C1CEA410FA2EBC9
:100E4000D15318BF9CEA026F00F03B804FF0004C7A
:100E50004CEA00204CEA012121FA03FC10EB0C0CB7
:100E60001ED202F1FF325FEA1C2040EBC25038BFB5
:100E700070471CF07F0F4FEA400C18BFBCF17F4F4A
:100E800038BF7047C3F12003994008BF20F001002C
:100E9000BCF17F4F38BF7047A0F1C04000F0DDB912
:100EA0004FEA3C00000A40EBC25028BF1CF0FF0F85
:100EB0004FEA400CE6D018BFBCF17F4F38BF7047F7
:100EC000EAE79CEA026F05D010EA5C0F08BF00F069
:100ED0000040704710B500F07AF900BF64FBBE3ED9
:100EE0004FF47F0C1CEAD0121EBF1CEAD11392EA09
:100EF0000C0F93EA0C0F00F0858090EA010F48BFB9
:100F000042F4807240F4000C41F400002CF07F4168
:100F100020F07F4000B58142A2EB03020FF2081CD3
:100F2000ACEB504EC0F100009EF800E04FEA4E0ED0
:100F300000FB0EFC38BF49004FEA2C1C02F5FA02F8
:100F40000CFB0EF34FEACE1E4FEA112C4FEAC121E3
:100F50000EEB635E42EB22420EFB0CFC4FEA1C538D
:100F600000FB03114FEA112C4FEA01310EFB0CFC80
:100F70004FEADC4C00FB0C11C14228BF09184CEBB6
:100F800003335DF804EB10EB410143EBC250B2F5C3
:100F90007C0F38BF704729D512F0F00F1CBF00F14D
:100FA000C04000F0004070470081828384858687BE
:100FB00088898B8C8D8E8F919293959697999A9C18
:100FC0009D9FA0A2A3A5A7A8AAACAEB0B2B3B5B787
:100FD000B9BCBEC0C2C5C7C9CCCED1D4D7D9DCDF5D
:100FE000E2E6E9ECF0F3F7FAFE0000004FEA400C0D
:100FF0000CF1807CBCF17E4F28BF7047B0F1C0403F
:1010000000F02BB990EA010F0CEAD11348BF42F46B
:101010008072624538BF634507D213F47F0F16D044
:1010200080EA010000F00040704710B500F0CFF8F2
:10103000097EFC3E00F005B880EA010000F00040A7
:10104000704780EA010000F0004000F006B912F499
:101050007F0F04BF0248704780EA010000F0FDB82E
:101060000000C07FC10DD1F19E0206DB4FEA0023D4
:1010700043F0004323FA02F07047004207D54FEADD
:101080004001B1F1FE4F02D24FF00000704710B5A1
:1010900000F09DF849922480002070476FEA2000FC
:1010A00070470000B0FA80F310FA03F2C3F19D0319
:1010B0000AD0D90501EB1220530638BF704700F162
:1010C000010008BF20F00100704700004FF47F0CC2
:1010D0001CEAD0121EBF1CEAD11392EA0C0F93EA4D
:1010E0000C0F00F0478090EA010F48BF42F4807275
:1010F0004FF0004C4CEA00204CEA012102EB0302C5
:10110000A0FB0113A2F50002002918BF43F0010360
:101110005B0028BF4FEA330342EB22425FEA132C05
:101120004CEBC2502EBFBCEB436FB2F57C0F704747
:101130004FEA036CBCF1004F08BF20F00100B2F58C
:101140007C0F38BF70470BD582F0FF0212F5803F4D
:10115000C8BF704700F1C040D8BF00F000407047E2
:1011600000F5000C5FEA4C0C48BF7047B0F1C0407E
:1011700000F073B890EA010F0CEAD11348BF42F4B3
:101180008072624538BF634504D280EA010000F0F6
:101190000040704710B500F01AF800BF8900013E0A
:1011A00000F007B800F009B85FEA410C5FEA1C6C78
:1011B00008D080EA010000F050B85FEA400C5FEA16
:1011C0001C6CF6D14FF00040A0F5800070470EF186
:1011D000020E2EF0030E5EF8044B244204D44FEAB4
:1011E0004102B2F17F4F11D84FEA4003B3F17F4F74
:1011F0000CD80ED14FEAD07CB2F17F4F0CEB4C0CE7
:101200000CF1020C08BF4CEBD17C04E04FF0080C51
:1012100001E04FEAD17C0CEB4C0324FA03F404F018
:101220000704B4F1040C06D20EEB840CBDE81040A8
:101230004CF0010C6047DFE80CF0070802024FF0A9
:101240000040A0F5800010BD0846420018BFD2F152
:10125000807288BF00F0004010BDFF2141EAD050ED
:10126000C005704780F0004090EA010F7FF5DDADCA
:1012700081F0004100F007B890EA010F48BF81F00B
:1012800000413FF5D2AD421A04D882F00042A0EBF3
:10129000020011444FEAD0524FF07F4C1CEA410F3C
:1012A000A2EBD15318BF9CEA026F4AD04FF0004C1A
:1012B0004CEA00204CEA012121FA03FCB0EB0C0CB3
:1012C0000FD412F0FE0F36D05FEA4C001DD500128D
:1012D00040EBC25038BF70471CF03F0F18BF70473B
:1012E0000BE0A2F101025FEA1C2040EBC25038BFC4
:1012F00070471CF07F0F18BF7047C3F1200399405F
:1013000014BF401E20F00100704780084FEA1223EE
:1013100008BF7047B0FA80FCA2EB0C02CCF1280C9D
:1013200060FA0CF093EA122F04BF00EBC250704732
:101330004FEAC3707047130A5FEADC1008BF7047BA
:10134000F6E79CEA026F04D010EA5C0F08BF0020A9
:10135000704710B5FFF73BFF40DFF63E81F00040DD
:1013600070470000841300080000002028000000DF
:1013700028010008AC1300082800002070060000B7
:1013800044010008000001420100020003000400C3
:10139000050006000700080009000A000B000C0009
:0C13A0000D000E000F0010000000000007
:04000005080000ED02
:00000001FF
